{
  "contractName": "NFTLootBox",
  "abi": [
    {
      "inputs": [
        {
          "internalType": "address",
          "name": "contractAddress",
          "type": "address"
        }
      ],
      "stateMutability": "nonpayable",
      "type": "constructor"
    },
    {
      "anonymous": false,
      "inputs": [
        {
          "indexed": true,
          "internalType": "address",
          "name": "owner",
          "type": "address"
        },
        {
          "indexed": true,
          "internalType": "address",
          "name": "approved",
          "type": "address"
        },
        {
          "indexed": true,
          "internalType": "uint256",
          "name": "tokenId",
          "type": "uint256"
        }
      ],
      "name": "Approval",
      "type": "event"
    },
    {
      "anonymous": false,
      "inputs": [
        {
          "indexed": true,
          "internalType": "address",
          "name": "owner",
          "type": "address"
        },
        {
          "indexed": true,
          "internalType": "address",
          "name": "operator",
          "type": "address"
        },
        {
          "indexed": false,
          "internalType": "bool",
          "name": "approved",
          "type": "bool"
        }
      ],
      "name": "ApprovalForAll",
      "type": "event"
    },
    {
      "anonymous": false,
      "inputs": [
        {
          "indexed": true,
          "internalType": "address",
          "name": "previousOwner",
          "type": "address"
        },
        {
          "indexed": true,
          "internalType": "address",
          "name": "newOwner",
          "type": "address"
        }
      ],
      "name": "OwnershipTransferred",
      "type": "event"
    },
    {
      "anonymous": false,
      "inputs": [
        {
          "indexed": true,
          "internalType": "address",
          "name": "from",
          "type": "address"
        },
        {
          "indexed": true,
          "internalType": "address",
          "name": "to",
          "type": "address"
        },
        {
          "indexed": true,
          "internalType": "uint256",
          "name": "tokenId",
          "type": "uint256"
        }
      ],
      "name": "Transfer",
      "type": "event"
    },
    {
      "inputs": [
        {
          "internalType": "address",
          "name": "to",
          "type": "address"
        },
        {
          "internalType": "uint256",
          "name": "tokenId",
          "type": "uint256"
        }
      ],
      "name": "approve",
      "outputs": [],
      "stateMutability": "nonpayable",
      "type": "function"
    },
    {
      "inputs": [
        {
          "internalType": "address",
          "name": "owner",
          "type": "address"
        }
      ],
      "name": "balanceOf",
      "outputs": [
        {
          "internalType": "uint256",
          "name": "",
          "type": "uint256"
        }
      ],
      "stateMutability": "view",
      "type": "function",
      "constant": true
    },
    {
      "inputs": [
        {
          "internalType": "uint256",
          "name": "tokenId",
          "type": "uint256"
        }
      ],
      "name": "getApproved",
      "outputs": [
        {
          "internalType": "address",
          "name": "",
          "type": "address"
        }
      ],
      "stateMutability": "view",
      "type": "function",
      "constant": true
    },
    {
      "inputs": [
        {
          "internalType": "address",
          "name": "owner",
          "type": "address"
        },
        {
          "internalType": "address",
          "name": "operator",
          "type": "address"
        }
      ],
      "name": "isApprovedForAll",
      "outputs": [
        {
          "internalType": "bool",
          "name": "",
          "type": "bool"
        }
      ],
      "stateMutability": "view",
      "type": "function",
      "constant": true
    },
    {
      "inputs": [],
      "name": "name",
      "outputs": [
        {
          "internalType": "string",
          "name": "",
          "type": "string"
        }
      ],
      "stateMutability": "view",
      "type": "function",
      "constant": true
    },
    {
      "inputs": [],
      "name": "owner",
      "outputs": [
        {
          "internalType": "address",
          "name": "",
          "type": "address"
        }
      ],
      "stateMutability": "view",
      "type": "function",
      "constant": true
    },
    {
      "inputs": [
        {
          "internalType": "uint256",
          "name": "tokenId",
          "type": "uint256"
        }
      ],
      "name": "ownerOf",
      "outputs": [
        {
          "internalType": "address",
          "name": "",
          "type": "address"
        }
      ],
      "stateMutability": "view",
      "type": "function",
      "constant": true
    },
    {
      "inputs": [],
      "name": "renounceOwnership",
      "outputs": [],
      "stateMutability": "nonpayable",
      "type": "function"
    },
    {
      "inputs": [
        {
          "internalType": "address",
          "name": "from",
          "type": "address"
        },
        {
          "internalType": "address",
          "name": "to",
          "type": "address"
        },
        {
          "internalType": "uint256",
          "name": "tokenId",
          "type": "uint256"
        }
      ],
      "name": "safeTransferFrom",
      "outputs": [],
      "stateMutability": "nonpayable",
      "type": "function"
    },
    {
      "inputs": [
        {
          "internalType": "address",
          "name": "from",
          "type": "address"
        },
        {
          "internalType": "address",
          "name": "to",
          "type": "address"
        },
        {
          "internalType": "uint256",
          "name": "tokenId",
          "type": "uint256"
        },
        {
          "internalType": "bytes",
          "name": "data",
          "type": "bytes"
        }
      ],
      "name": "safeTransferFrom",
      "outputs": [],
      "stateMutability": "nonpayable",
      "type": "function"
    },
    {
      "inputs": [
        {
          "internalType": "address",
          "name": "operator",
          "type": "address"
        },
        {
          "internalType": "bool",
          "name": "approved",
          "type": "bool"
        }
      ],
      "name": "setApprovalForAll",
      "outputs": [],
      "stateMutability": "nonpayable",
      "type": "function"
    },
    {
      "inputs": [
        {
          "internalType": "bytes4",
          "name": "interfaceId",
          "type": "bytes4"
        }
      ],
      "name": "supportsInterface",
      "outputs": [
        {
          "internalType": "bool",
          "name": "",
          "type": "bool"
        }
      ],
      "stateMutability": "view",
      "type": "function",
      "constant": true
    },
    {
      "inputs": [],
      "name": "symbol",
      "outputs": [
        {
          "internalType": "string",
          "name": "",
          "type": "string"
        }
      ],
      "stateMutability": "view",
      "type": "function",
      "constant": true
    },
    {
      "inputs": [
        {
          "internalType": "uint256",
          "name": "tokenId",
          "type": "uint256"
        }
      ],
      "name": "tokenURI",
      "outputs": [
        {
          "internalType": "string",
          "name": "",
          "type": "string"
        }
      ],
      "stateMutability": "view",
      "type": "function",
      "constant": true
    },
    {
      "inputs": [
        {
          "internalType": "address",
          "name": "from",
          "type": "address"
        },
        {
          "internalType": "address",
          "name": "to",
          "type": "address"
        },
        {
          "internalType": "uint256",
          "name": "tokenId",
          "type": "uint256"
        }
      ],
      "name": "transferFrom",
      "outputs": [],
      "stateMutability": "nonpayable",
      "type": "function"
    },
    {
      "inputs": [
        {
          "internalType": "address",
          "name": "newOwner",
          "type": "address"
        }
      ],
      "name": "transferOwnership",
      "outputs": [],
      "stateMutability": "nonpayable",
      "type": "function"
    },
    {
      "inputs": [
        {
          "internalType": "address",
          "name": "recipient",
          "type": "address"
        },
        {
          "internalType": "string",
          "name": "tokenURI",
          "type": "string"
        }
      ],
      "name": "mintNFT",
      "outputs": [
        {
          "internalType": "uint256",
          "name": "",
          "type": "uint256"
        }
      ],
      "stateMutability": "payable",
      "type": "function",
      "payable": true
    },
    {
      "inputs": [
        {
          "internalType": "address",
          "name": "tokenAddress",
          "type": "address"
        }
      ],
      "name": "setToken",
      "outputs": [
        {
          "internalType": "bool",
          "name": "",
          "type": "bool"
        }
      ],
      "stateMutability": "nonpayable",
      "type": "function"
    }
  ],
  "bytecode": "0x60806040523480156200001157600080fd5b50604051620039f4380380620039f4833981810160405281019062000037919062000393565b6040518060400160405280600681526020017f4d794e46547300000000000000000000000000000000000000000000000000008152506040518060400160405280600481526020017f4d4e4654000000000000000000000000000000000000000000000000000000008152508160009081620000b491906200063f565b508060019081620000c691906200063f565b505050620000e9620000dd6200010a60201b60201c565b6200011260201b60201c565b6001600a819055506200010281620001d860201b60201c565b5050620007a9565b600033905090565b6000600760009054906101000a900473ffffffffffffffffffffffffffffffffffffffff16905081600760006101000a81548173ffffffffffffffffffffffffffffffffffffffff021916908373ffffffffffffffffffffffffffffffffffffffff1602179055508173ffffffffffffffffffffffffffffffffffffffff168173ffffffffffffffffffffffffffffffffffffffff167f8be0079c531659141344cd1fd0a4f28419497f9722a3daafe3b4186f6b6457e060405160405180910390a35050565b6000620001ea6200026e60201b60201c565b600073ffffffffffffffffffffffffffffffffffffffff168273ffffffffffffffffffffffffffffffffffffffff16036200022457600080fd5b81600960006101000a81548173ffffffffffffffffffffffffffffffffffffffff021916908373ffffffffffffffffffffffffffffffffffffffff16021790555060019050919050565b6200027e6200010a60201b60201c565b73ffffffffffffffffffffffffffffffffffffffff16620002a4620002ff60201b60201c565b73ffffffffffffffffffffffffffffffffffffffff1614620002fd576040517f08c379a0000000000000000000000000000000000000000000000000000000008152600401620002f49062000787565b60405180910390fd5b565b6000600760009054906101000a900473ffffffffffffffffffffffffffffffffffffffff16905090565b600080fd5b600073ffffffffffffffffffffffffffffffffffffffff82169050919050565b60006200035b826200032e565b9050919050565b6200036d816200034e565b81146200037957600080fd5b50565b6000815190506200038d8162000362565b92915050565b600060208284031215620003ac57620003ab62000329565b5b6000620003bc848285016200037c565b91505092915050565b600081519050919050565b7f4e487b7100000000000000000000000000000000000000000000000000000000600052604160045260246000fd5b7f4e487b7100000000000000000000000000000000000000000000000000000000600052602260045260246000fd5b600060028204905060018216806200044757607f821691505b6020821081036200045d576200045c620003ff565b5b50919050565b60008190508160005260206000209050919050565b60006020601f8301049050919050565b600082821b905092915050565b600060088302620004c77fffffffffffffffffffffffffffffffffffffffffffffffffffffffffffffffff8262000488565b620004d3868362000488565b95508019841693508086168417925050509392505050565b6000819050919050565b6000819050919050565b6000620005206200051a6200051484620004eb565b620004f5565b620004eb565b9050919050565b6000819050919050565b6200053c83620004ff565b620005546200054b8262000527565b84845462000495565b825550505050565b600090565b6200056b6200055c565b6200057881848462000531565b505050565b5b81811015620005a0576200059460008262000561565b6001810190506200057e565b5050565b601f821115620005ef57620005b98162000463565b620005c48462000478565b81016020851015620005d4578190505b620005ec620005e38562000478565b8301826200057d565b50505b505050565b600082821c905092915050565b60006200061460001984600802620005f4565b1980831691505092915050565b60006200062f838362000601565b9150826002028217905092915050565b6200064a82620003c5565b67ffffffffffffffff811115620006665762000665620003d0565b5b6200067282546200042e565b6200067f828285620005a4565b600060209050601f831160018114620006b75760008415620006a2578287015190505b620006ae858262000621565b8655506200071e565b601f198416620006c78662000463565b60005b82811015620006f157848901518255600182019150602085019450602081019050620006ca565b868310156200071157848901516200070d601f89168262000601565b8355505b6001600288020188555050505b505050505050565b600082825260208201905092915050565b7f4f776e61626c653a2063616c6c6572206973206e6f7420746865206f776e6572600082015250565b60006200076f60208362000726565b91506200077c8262000737565b602082019050919050565b60006020820190508181036000830152620007a28162000760565b9050919050565b61323b80620007b96000396000f3fe6080604052600436106101095760003560e01c8063715018a611610095578063b88d4fde11610064578063b88d4fde1461037b578063c87b56dd146103a4578063e985e9c5146103e1578063eacabe141461041e578063f2fde38b1461044e57610109565b8063715018a6146102e55780638da5cb5b146102fc57806395d89b4114610327578063a22cb4651461035257610109565b8063144fa6d7116100dc578063144fa6d7146101dc57806323b872dd1461021957806342842e0e146102425780636352211e1461026b57806370a08231146102a857610109565b806301ffc9a71461010e57806306fdde031461014b578063081812fc14610176578063095ea7b3146101b3575b600080fd5b34801561011a57600080fd5b5061013560048036038101906101309190611d44565b610477565b6040516101429190611d8c565b60405180910390f35b34801561015757600080fd5b50610160610559565b60405161016d9190611e40565b60405180910390f35b34801561018257600080fd5b5061019d60048036038101906101989190611e98565b6105eb565b6040516101aa9190611f06565b60405180910390f35b3480156101bf57600080fd5b506101da60048036038101906101d59190611f4d565b610631565b005b3480156101e857600080fd5b5061020360048036038101906101fe9190611f8d565b610748565b6040516102109190611d8c565b60405180910390f35b34801561022557600080fd5b50610240600480360381019061023b9190611fba565b6107d5565b005b34801561024e57600080fd5b5061026960048036038101906102649190611fba565b610835565b005b34801561027757600080fd5b50610292600480360381019061028d9190611e98565b610855565b60405161029f9190611f06565b60405180910390f35b3480156102b457600080fd5b506102cf60048036038101906102ca9190611f8d565b610906565b6040516102dc919061201c565b60405180910390f35b3480156102f157600080fd5b506102fa6109bd565b005b34801561030857600080fd5b506103116109d1565b60405161031e9190611f06565b60405180910390f35b34801561033357600080fd5b5061033c6109fb565b6040516103499190611e40565b60405180910390f35b34801561035e57600080fd5b5061037960048036038101906103749190612063565b610a8d565b005b34801561038757600080fd5b506103a2600480360381019061039d91906121d8565b610aa3565b005b3480156103b057600080fd5b506103cb60048036038101906103c69190611e98565b610b05565b6040516103d89190611e40565b60405180910390f35b3480156103ed57600080fd5b506104086004803603810190610403919061225b565b610c17565b6040516104159190611d8c565b60405180910390f35b6104386004803603810190610433919061233c565b610cab565b604051610445919061201c565b60405180910390f35b34801561045a57600080fd5b5061047560048036038101906104709190611f8d565b610e6f565b005b60007f80ac58cd000000000000000000000000000000000000000000000000000000007bffffffffffffffffffffffffffffffffffffffffffffffffffffffff1916827bffffffffffffffffffffffffffffffffffffffffffffffffffffffff1916148061054257507f5b5e139f000000000000000000000000000000000000000000000000000000007bffffffffffffffffffffffffffffffffffffffffffffffffffffffff1916827bffffffffffffffffffffffffffffffffffffffffffffffffffffffff1916145b80610552575061055182610ef2565b5b9050919050565b606060008054610568906123c7565b80601f0160208091040260200160405190810160405280929190818152602001828054610594906123c7565b80156105e15780601f106105b6576101008083540402835291602001916105e1565b820191906000526020600020905b8154815290600101906020018083116105c457829003601f168201915b5050505050905090565b60006105f682610f5c565b6004600083815260200190815260200160002060009054906101000a900473ffffffffffffffffffffffffffffffffffffffff169050919050565b600061063c82610855565b90508073ffffffffffffffffffffffffffffffffffffffff168373ffffffffffffffffffffffffffffffffffffffff16036106ac576040517f08c379a00000000000000000000000000000000000000000000000000000000081526004016106a39061246a565b60405180910390fd5b8073ffffffffffffffffffffffffffffffffffffffff166106cb610fa7565b73ffffffffffffffffffffffffffffffffffffffff1614806106fa57506106f9816106f4610fa7565b610c17565b5b610739576040517f08c379a0000000000000000000000000000000000000000000000000000000008152600401610730906124fc565b60405180910390fd5b6107438383610faf565b505050565b6000610752611068565b600073ffffffffffffffffffffffffffffffffffffffff168273ffffffffffffffffffffffffffffffffffffffff160361078b57600080fd5b81600960006101000a81548173ffffffffffffffffffffffffffffffffffffffff021916908373ffffffffffffffffffffffffffffffffffffffff16021790555060019050919050565b6107e66107e0610fa7565b826110e6565b610825576040517f08c379a000000000000000000000000000000000000000000000000000000000815260040161081c9061258e565b60405180910390fd5b61083083838361117b565b505050565b61085083838360405180602001604052806000815250610aa3565b505050565b6000806002600084815260200190815260200160002060009054906101000a900473ffffffffffffffffffffffffffffffffffffffff169050600073ffffffffffffffffffffffffffffffffffffffff168173ffffffffffffffffffffffffffffffffffffffff16036108fd576040517f08c379a00000000000000000000000000000000000000000000000000000000081526004016108f4906125fa565b60405180910390fd5b80915050919050565b60008073ffffffffffffffffffffffffffffffffffffffff168273ffffffffffffffffffffffffffffffffffffffff1603610976576040517f08c379a000000000000000000000000000000000000000000000000000000000815260040161096d9061268c565b60405180910390fd5b600360008373ffffffffffffffffffffffffffffffffffffffff1673ffffffffffffffffffffffffffffffffffffffff168152602001908152602001600020549050919050565b6109c5611068565b6109cf60006113e1565b565b6000600760009054906101000a900473ffffffffffffffffffffffffffffffffffffffff16905090565b606060018054610a0a906123c7565b80601f0160208091040260200160405190810160405280929190818152602001828054610a36906123c7565b8015610a835780601f10610a5857610100808354040283529160200191610a83565b820191906000526020600020905b815481529060010190602001808311610a6657829003601f168201915b5050505050905090565b610a9f610a98610fa7565b83836114a7565b5050565b610ab4610aae610fa7565b836110e6565b610af3576040517f08c379a0000000000000000000000000000000000000000000000000000000008152600401610aea9061258e565b60405180910390fd5b610aff84848484611613565b50505050565b6060610b1082610f5c565b6000600660008481526020019081526020016000208054610b30906123c7565b80601f0160208091040260200160405190810160405280929190818152602001828054610b5c906123c7565b8015610ba95780601f10610b7e57610100808354040283529160200191610ba9565b820191906000526020600020905b815481529060010190602001808311610b8c57829003601f168201915b505050505090506000610bba61166f565b90506000815103610bcf578192505050610c12565b600082511115610c04578082604051602001610bec9291906126e8565b60405160208183030381529060405292505050610c12565b610c0d84611686565b925050505b919050565b6000600560008473ffffffffffffffffffffffffffffffffffffffff1673ffffffffffffffffffffffffffffffffffffffff16815260200190815260200160002060008373ffffffffffffffffffffffffffffffffffffffff1673ffffffffffffffffffffffffffffffffffffffff16815260200190815260200160002060009054906101000a900460ff16905092915050565b6000610cb5611068565b600a54600960009054906101000a900473ffffffffffffffffffffffffffffffffffffffff1673ffffffffffffffffffffffffffffffffffffffff166370a08231856040518263ffffffff1660e01b8152600401610d139190611f06565b602060405180830381865afa158015610d30573d6000803e3d6000fd5b505050506040513d601f19601f82011682018060405250810190610d549190612721565b11610d94576040517f08c379a0000000000000000000000000000000000000000000000000000000008152600401610d8b906127c0565b60405180910390fd5b600960009054906101000a900473ffffffffffffffffffffffffffffffffffffffff1673ffffffffffffffffffffffffffffffffffffffff166323b872dd8433600a546040518463ffffffff1660e01b8152600401610df5939291906127e0565b6020604051808303816000875af1158015610e14573d6000803e3d6000fd5b505050506040513d601f19601f82011682018060405250810190610e38919061282c565b50610e4360086116ee565b6000610e4f6008611704565b9050610e5b8482611712565b610e6581846118eb565b8091505092915050565b610e77611068565b600073ffffffffffffffffffffffffffffffffffffffff168173ffffffffffffffffffffffffffffffffffffffff1603610ee6576040517f08c379a0000000000000000000000000000000000000000000000000000000008152600401610edd906128cb565b60405180910390fd5b610eef816113e1565b50565b60007f01ffc9a7000000000000000000000000000000000000000000000000000000007bffffffffffffffffffffffffffffffffffffffffffffffffffffffff1916827bffffffffffffffffffffffffffffffffffffffffffffffffffffffff1916149050919050565b610f6581611958565b610fa4576040517f08c379a0000000000000000000000000000000000000000000000000000000008152600401610f9b906125fa565b60405180910390fd5b50565b600033905090565b816004600083815260200190815260200160002060006101000a81548173ffffffffffffffffffffffffffffffffffffffff021916908373ffffffffffffffffffffffffffffffffffffffff160217905550808273ffffffffffffffffffffffffffffffffffffffff1661102283610855565b73ffffffffffffffffffffffffffffffffffffffff167f8c5be1e5ebec7d5bd14f71427d1e84f3dd0314c0f7b2291e5b200ac8c7c3b92560405160405180910390a45050565b611070610fa7565b73ffffffffffffffffffffffffffffffffffffffff1661108e6109d1565b73ffffffffffffffffffffffffffffffffffffffff16146110e4576040517f08c379a00000000000000000000000000000000000000000000000000000000081526004016110db90612937565b60405180910390fd5b565b6000806110f283610855565b90508073ffffffffffffffffffffffffffffffffffffffff168473ffffffffffffffffffffffffffffffffffffffff16148061113457506111338185610c17565b5b8061117257508373ffffffffffffffffffffffffffffffffffffffff1661115a846105eb565b73ffffffffffffffffffffffffffffffffffffffff16145b91505092915050565b8273ffffffffffffffffffffffffffffffffffffffff1661119b82610855565b73ffffffffffffffffffffffffffffffffffffffff16146111f1576040517f08c379a00000000000000000000000000000000000000000000000000000000081526004016111e8906129c9565b60405180910390fd5b600073ffffffffffffffffffffffffffffffffffffffff168273ffffffffffffffffffffffffffffffffffffffff1603611260576040517f08c379a000000000000000000000000000000000000000000000000000000000815260040161125790612a5b565b60405180910390fd5b61126b8383836119c4565b611276600082610faf565b6001600360008573ffffffffffffffffffffffffffffffffffffffff1673ffffffffffffffffffffffffffffffffffffffff16815260200190815260200160002060008282546112c69190612aaa565b925050819055506001600360008473ffffffffffffffffffffffffffffffffffffffff1673ffffffffffffffffffffffffffffffffffffffff168152602001908152602001600020600082825461131d9190612ade565b92505081905550816002600083815260200190815260200160002060006101000a81548173ffffffffffffffffffffffffffffffffffffffff021916908373ffffffffffffffffffffffffffffffffffffffff160217905550808273ffffffffffffffffffffffffffffffffffffffff168473ffffffffffffffffffffffffffffffffffffffff167fddf252ad1be2c89b69c2b068fc378daa952ba7f163c4a11628f55a4df523b3ef60405160405180910390a46113dc8383836119c9565b505050565b6000600760009054906101000a900473ffffffffffffffffffffffffffffffffffffffff16905081600760006101000a81548173ffffffffffffffffffffffffffffffffffffffff021916908373ffffffffffffffffffffffffffffffffffffffff1602179055508173ffffffffffffffffffffffffffffffffffffffff168173ffffffffffffffffffffffffffffffffffffffff167f8be0079c531659141344cd1fd0a4f28419497f9722a3daafe3b4186f6b6457e060405160405180910390a35050565b8173ffffffffffffffffffffffffffffffffffffffff168373ffffffffffffffffffffffffffffffffffffffff1603611515576040517f08c379a000000000000000000000000000000000000000000000000000000000815260040161150c90612b80565b60405180910390fd5b80600560008573ffffffffffffffffffffffffffffffffffffffff1673ffffffffffffffffffffffffffffffffffffffff16815260200190815260200160002060008473ffffffffffffffffffffffffffffffffffffffff1673ffffffffffffffffffffffffffffffffffffffff16815260200190815260200160002060006101000a81548160ff0219169083151502179055508173ffffffffffffffffffffffffffffffffffffffff168373ffffffffffffffffffffffffffffffffffffffff167f17307eab39ab6107e8899845ad3d59bd9653f200f220920489ca2b5937696c31836040516116069190611d8c565b60405180910390a3505050565b61161e84848461117b565b61162a848484846119ce565b611669576040517f08c379a000000000000000000000000000000000000000000000000000000000815260040161166090612c12565b60405180910390fd5b50505050565b606060405180602001604052806000815250905090565b606061169182610f5c565b600061169b61166f565b905060008151116116bb57604051806020016040528060008152506116e6565b806116c584611b55565b6040516020016116d69291906126e8565b6040516020818303038152906040525b915050919050565b6001816000016000828254019250508190555050565b600081600001549050919050565b600073ffffffffffffffffffffffffffffffffffffffff168273ffffffffffffffffffffffffffffffffffffffff1603611781576040517f08c379a000000000000000000000000000000000000000000000000000000000815260040161177890612c7e565b60405180910390fd5b61178a81611958565b156117ca576040517f08c379a00000000000000000000000000000000000000000000000000000000081526004016117c190612cea565b60405180910390fd5b6117d6600083836119c4565b6001600360008473ffffffffffffffffffffffffffffffffffffffff1673ffffffffffffffffffffffffffffffffffffffff16815260200190815260200160002060008282546118269190612ade565b92505081905550816002600083815260200190815260200160002060006101000a81548173ffffffffffffffffffffffffffffffffffffffff021916908373ffffffffffffffffffffffffffffffffffffffff160217905550808273ffffffffffffffffffffffffffffffffffffffff16600073ffffffffffffffffffffffffffffffffffffffff167fddf252ad1be2c89b69c2b068fc378daa952ba7f163c4a11628f55a4df523b3ef60405160405180910390a46118e7600083836119c9565b5050565b6118f482611958565b611933576040517f08c379a000000000000000000000000000000000000000000000000000000000815260040161192a90612d7c565b60405180910390fd5b806006600084815260200190815260200160002090816119539190612f48565b505050565b60008073ffffffffffffffffffffffffffffffffffffffff166002600084815260200190815260200160002060009054906101000a900473ffffffffffffffffffffffffffffffffffffffff1673ffffffffffffffffffffffffffffffffffffffff1614159050919050565b505050565b505050565b60006119ef8473ffffffffffffffffffffffffffffffffffffffff16611cb5565b15611b48578373ffffffffffffffffffffffffffffffffffffffff1663150b7a02611a18610fa7565b8786866040518563ffffffff1660e01b8152600401611a3a949392919061306f565b6020604051808303816000875af1925050508015611a7657506040513d601f19601f82011682018060405250810190611a7391906130d0565b60015b611af8573d8060008114611aa6576040519150601f19603f3d011682016040523d82523d6000602084013e611aab565b606091505b506000815103611af0576040517f08c379a0000000000000000000000000000000000000000000000000000000008152600401611ae790612c12565b60405180910390fd5b805181602001fd5b63150b7a0260e01b7bffffffffffffffffffffffffffffffffffffffffffffffffffffffff1916817bffffffffffffffffffffffffffffffffffffffffffffffffffffffff191614915050611b4d565b600190505b949350505050565b606060008203611b9c576040518060400160405280600181526020017f30000000000000000000000000000000000000000000000000000000000000008152509050611cb0565b600082905060005b60008214611bce578080611bb7906130fd565b915050600a82611bc79190613174565b9150611ba4565b60008167ffffffffffffffff811115611bea57611be96120ad565b5b6040519080825280601f01601f191660200182016040528015611c1c5781602001600182028036833780820191505090505b5090505b60008514611ca957600182611c359190612aaa565b9150600a85611c4491906131a5565b6030611c509190612ade565b60f81b818381518110611c6657611c656131d6565b5b60200101907effffffffffffffffffffffffffffffffffffffffffffffffffffffffffffff1916908160001a905350600a85611ca29190613174565b9450611c20565b8093505050505b919050565b6000808273ffffffffffffffffffffffffffffffffffffffff163b119050919050565b6000604051905090565b600080fd5b600080fd5b60007fffffffff0000000000000000000000000000000000000000000000000000000082169050919050565b611d2181611cec565b8114611d2c57600080fd5b50565b600081359050611d3e81611d18565b92915050565b600060208284031215611d5a57611d59611ce2565b5b6000611d6884828501611d2f565b91505092915050565b60008115159050919050565b611d8681611d71565b82525050565b6000602082019050611da16000830184611d7d565b92915050565b600081519050919050565b600082825260208201905092915050565b60005b83811015611de1578082015181840152602081019050611dc6565b83811115611df0576000848401525b50505050565b6000601f19601f8301169050919050565b6000611e1282611da7565b611e1c8185611db2565b9350611e2c818560208601611dc3565b611e3581611df6565b840191505092915050565b60006020820190508181036000830152611e5a8184611e07565b905092915050565b6000819050919050565b611e7581611e62565b8114611e8057600080fd5b50565b600081359050611e9281611e6c565b92915050565b600060208284031215611eae57611ead611ce2565b5b6000611ebc84828501611e83565b91505092915050565b600073ffffffffffffffffffffffffffffffffffffffff82169050919050565b6000611ef082611ec5565b9050919050565b611f0081611ee5565b82525050565b6000602082019050611f1b6000830184611ef7565b92915050565b611f2a81611ee5565b8114611f3557600080fd5b50565b600081359050611f4781611f21565b92915050565b60008060408385031215611f6457611f63611ce2565b5b6000611f7285828601611f38565b9250506020611f8385828601611e83565b9150509250929050565b600060208284031215611fa357611fa2611ce2565b5b6000611fb184828501611f38565b91505092915050565b600080600060608486031215611fd357611fd2611ce2565b5b6000611fe186828701611f38565b9350506020611ff286828701611f38565b925050604061200386828701611e83565b9150509250925092565b61201681611e62565b82525050565b6000602082019050612031600083018461200d565b92915050565b61204081611d71565b811461204b57600080fd5b50565b60008135905061205d81612037565b92915050565b6000806040838503121561207a57612079611ce2565b5b600061208885828601611f38565b92505060206120998582860161204e565b9150509250929050565b600080fd5b600080fd5b7f4e487b7100000000000000000000000000000000000000000000000000000000600052604160045260246000fd5b6120e582611df6565b810181811067ffffffffffffffff82111715612104576121036120ad565b5b80604052505050565b6000612117611cd8565b905061212382826120dc565b919050565b600067ffffffffffffffff821115612143576121426120ad565b5b61214c82611df6565b9050602081019050919050565b82818337600083830152505050565b600061217b61217684612128565b61210d565b905082815260208101848484011115612197576121966120a8565b5b6121a2848285612159565b509392505050565b600082601f8301126121bf576121be6120a3565b5b81356121cf848260208601612168565b91505092915050565b600080600080608085870312156121f2576121f1611ce2565b5b600061220087828801611f38565b945050602061221187828801611f38565b935050604061222287828801611e83565b925050606085013567ffffffffffffffff81111561224357612242611ce7565b5b61224f878288016121aa565b91505092959194509250565b6000806040838503121561227257612271611ce2565b5b600061228085828601611f38565b925050602061229185828601611f38565b9150509250929050565b600067ffffffffffffffff8211156122b6576122b56120ad565b5b6122bf82611df6565b9050602081019050919050565b60006122df6122da8461229b565b61210d565b9050828152602081018484840111156122fb576122fa6120a8565b5b612306848285612159565b509392505050565b600082601f830112612323576123226120a3565b5b81356123338482602086016122cc565b91505092915050565b6000806040838503121561235357612352611ce2565b5b600061236185828601611f38565b925050602083013567ffffffffffffffff81111561238257612381611ce7565b5b61238e8582860161230e565b9150509250929050565b7f4e487b7100000000000000000000000000000000000000000000000000000000600052602260045260246000fd5b600060028204905060018216806123df57607f821691505b6020821081036123f2576123f1612398565b5b50919050565b7f4552433732313a20617070726f76616c20746f2063757272656e74206f776e6560008201527f7200000000000000000000000000000000000000000000000000000000000000602082015250565b6000612454602183611db2565b915061245f826123f8565b604082019050919050565b6000602082019050818103600083015261248381612447565b9050919050565b7f4552433732313a20617070726f76652063616c6c6572206973206e6f7420746f60008201527f6b656e206f776e6572206e6f7220617070726f76656420666f7220616c6c0000602082015250565b60006124e6603e83611db2565b91506124f18261248a565b604082019050919050565b60006020820190508181036000830152612515816124d9565b9050919050565b7f4552433732313a2063616c6c6572206973206e6f7420746f6b656e206f776e6560008201527f72206e6f7220617070726f766564000000000000000000000000000000000000602082015250565b6000612578602e83611db2565b91506125838261251c565b604082019050919050565b600060208201905081810360008301526125a78161256b565b9050919050565b7f4552433732313a20696e76616c696420746f6b656e2049440000000000000000600082015250565b60006125e4601883611db2565b91506125ef826125ae565b602082019050919050565b60006020820190508181036000830152612613816125d7565b9050919050565b7f4552433732313a2061646472657373207a65726f206973206e6f74206120766160008201527f6c6964206f776e65720000000000000000000000000000000000000000000000602082015250565b6000612676602983611db2565b91506126818261261a565b604082019050919050565b600060208201905081810360008301526126a581612669565b9050919050565b600081905092915050565b60006126c282611da7565b6126cc81856126ac565b93506126dc818560208601611dc3565b80840191505092915050565b60006126f482856126b7565b915061270082846126b7565b91508190509392505050565b60008151905061271b81611e6c565b92915050565b60006020828403121561273757612736611ce2565b5b60006127458482850161270c565b91505092915050565b7f4552433732313a20726563697069656e74206c61636b206f662062616c616e6360008201527f6500000000000000000000000000000000000000000000000000000000000000602082015250565b60006127aa602183611db2565b91506127b58261274e565b604082019050919050565b600060208201905081810360008301526127d98161279d565b9050919050565b60006060820190506127f56000830186611ef7565b6128026020830185611ef7565b61280f604083018461200d565b949350505050565b60008151905061282681612037565b92915050565b60006020828403121561284257612841611ce2565b5b600061285084828501612817565b91505092915050565b7f4f776e61626c653a206e6577206f776e657220697320746865207a65726f206160008201527f6464726573730000000000000000000000000000000000000000000000000000602082015250565b60006128b5602683611db2565b91506128c082612859565b604082019050919050565b600060208201905081810360008301526128e4816128a8565b9050919050565b7f4f776e61626c653a2063616c6c6572206973206e6f7420746865206f776e6572600082015250565b6000612921602083611db2565b915061292c826128eb565b602082019050919050565b6000602082019050818103600083015261295081612914565b9050919050565b7f4552433732313a207472616e736665722066726f6d20696e636f72726563742060008201527f6f776e6572000000000000000000000000000000000000000000000000000000602082015250565b60006129b3602583611db2565b91506129be82612957565b604082019050919050565b600060208201905081810360008301526129e2816129a6565b9050919050565b7f4552433732313a207472616e7366657220746f20746865207a65726f2061646460008201527f7265737300000000000000000000000000000000000000000000000000000000602082015250565b6000612a45602483611db2565b9150612a50826129e9565b604082019050919050565b60006020820190508181036000830152612a7481612a38565b9050919050565b7f4e487b7100000000000000000000000000000000000000000000000000000000600052601160045260246000fd5b6000612ab582611e62565b9150612ac083611e62565b925082821015612ad357612ad2612a7b565b5b828203905092915050565b6000612ae982611e62565b9150612af483611e62565b9250827fffffffffffffffffffffffffffffffffffffffffffffffffffffffffffffffff03821115612b2957612b28612a7b565b5b828201905092915050565b7f4552433732313a20617070726f766520746f2063616c6c657200000000000000600082015250565b6000612b6a601983611db2565b9150612b7582612b34565b602082019050919050565b60006020820190508181036000830152612b9981612b5d565b9050919050565b7f4552433732313a207472616e7366657220746f206e6f6e20455243373231526560008201527f63656976657220696d706c656d656e7465720000000000000000000000000000602082015250565b6000612bfc603283611db2565b9150612c0782612ba0565b604082019050919050565b60006020820190508181036000830152612c2b81612bef565b9050919050565b7f4552433732313a206d696e7420746f20746865207a65726f2061646472657373600082015250565b6000612c68602083611db2565b9150612c7382612c32565b602082019050919050565b60006020820190508181036000830152612c9781612c5b565b9050919050565b7f4552433732313a20746f6b656e20616c7265616479206d696e74656400000000600082015250565b6000612cd4601c83611db2565b9150612cdf82612c9e565b602082019050919050565b60006020820190508181036000830152612d0381612cc7565b9050919050565b7f45524337323155524953746f726167653a2055524920736574206f66206e6f6e60008201527f6578697374656e7420746f6b656e000000000000000000000000000000000000602082015250565b6000612d66602e83611db2565b9150612d7182612d0a565b604082019050919050565b60006020820190508181036000830152612d9581612d59565b9050919050565b60008190508160005260206000209050919050565b60006020601f8301049050919050565b600082821b905092915050565b600060088302612dfe7fffffffffffffffffffffffffffffffffffffffffffffffffffffffffffffffff82612dc1565b612e088683612dc1565b95508019841693508086168417925050509392505050565b6000819050919050565b6000612e45612e40612e3b84611e62565b612e20565b611e62565b9050919050565b6000819050919050565b612e5f83612e2a565b612e73612e6b82612e4c565b848454612dce565b825550505050565b600090565b612e88612e7b565b612e93818484612e56565b505050565b5b81811015612eb757612eac600082612e80565b600181019050612e99565b5050565b601f821115612efc57612ecd81612d9c565b612ed684612db1565b81016020851015612ee5578190505b612ef9612ef185612db1565b830182612e98565b50505b505050565b600082821c905092915050565b6000612f1f60001984600802612f01565b1980831691505092915050565b6000612f388383612f0e565b9150826002028217905092915050565b612f5182611da7565b67ffffffffffffffff811115612f6a57612f696120ad565b5b612f7482546123c7565b612f7f828285612ebb565b600060209050601f831160018114612fb25760008415612fa0578287015190505b612faa8582612f2c565b865550613012565b601f198416612fc086612d9c565b60005b82811015612fe857848901518255600182019150602085019450602081019050612fc3565b868310156130055784890151613001601f891682612f0e565b8355505b6001600288020188555050505b505050505050565b600081519050919050565b600082825260208201905092915050565b60006130418261301a565b61304b8185613025565b935061305b818560208601611dc3565b61306481611df6565b840191505092915050565b60006080820190506130846000830187611ef7565b6130916020830186611ef7565b61309e604083018561200d565b81810360608301526130b08184613036565b905095945050505050565b6000815190506130ca81611d18565b92915050565b6000602082840312156130e6576130e5611ce2565b5b60006130f4848285016130bb565b91505092915050565b600061310882611e62565b91507fffffffffffffffffffffffffffffffffffffffffffffffffffffffffffffffff820361313a57613139612a7b565b5b600182019050919050565b7f4e487b7100000000000000000000000000000000000000000000000000000000600052601260045260246000fd5b600061317f82611e62565b915061318a83611e62565b92508261319a57613199613145565b5b828204905092915050565b60006131b082611e62565b91506131bb83611e62565b9250826131cb576131ca613145565b5b828206905092915050565b7f4e487b7100000000000000000000000000000000000000000000000000000000600052603260045260246000fdfea26469706673582212206b5a134ec0ae58d0f4fcff711eb98d5353da00b8424ab24cf3cb6a708538062864736f6c634300080f0033",
  "immutableReferences": {},
  "source": "// SPDX-License-Identifier: MIT\npragma solidity ^0.8.10;\n\nimport \"@openzeppelin/contracts/token/ERC721/ERC721.sol\";\nimport \"@openzeppelin/contracts/utils/Counters.sol\";\nimport \"@openzeppelin/contracts/access/Ownable.sol\";\nimport \"@openzeppelin/contracts/token/ERC721/extensions/ERC721URIStorage.sol\";\nimport \"./interfaces/ERC20Interface.sol\";\n\ncontract NFTLootBox is ERC721URIStorage, Ownable {\n    using Counters for Counters.Counter;\n    Counters.Counter private _tokenIds;\n    ERC20Interface token;\n    uint256 nftPrice;\n\n    constructor(address contractAddress) ERC721(\"MyNFTs\", \"MNFT\") {\n        nftPrice = 1;\n        setToken(contractAddress);\n    }\n\n    function mintNFT(address recipient, string memory tokenURI) public payable onlyOwner returns (uint256) {\n        require(token.balanceOf(recipient) > nftPrice, \"ERC721: recipient lack of balance\");\n\n        token.transferFrom(recipient, msg.sender, nftPrice);\n        \n        _tokenIds.increment();\n        uint256 newItemId = _tokenIds.current();\n        _mint(recipient, newItemId);\n        _setTokenURI(newItemId, tokenURI);\n\n        return newItemId;\n    }\n\n    function setToken(address tokenAddress) public onlyOwner returns (bool) {\n        require(tokenAddress != address(0x0));\n        token = ERC20Interface(tokenAddress);\n        return true;\n    }\n}\n",
  "sourcePath": "/Users/hyenne/workspace/BEB-05-InnoBlue/contract/contracts/ERC721.sol",
  "compiler": {
    "name": "solc",
    "version": "0.8.15+commit.e14f2714.Emscripten.clang"
  },
  "schemaVersion": "3.4.9",
  "updatedAt": "2022-08-28T22:42:31.256Z",
  "networkType": "ethereum",
  "devdoc": {
    "kind": "dev",
    "methods": {
      "approve(address,uint256)": {
        "details": "See {IERC721-approve}."
      },
      "balanceOf(address)": {
        "details": "See {IERC721-balanceOf}."
      },
      "getApproved(uint256)": {
        "details": "See {IERC721-getApproved}."
      },
      "isApprovedForAll(address,address)": {
        "details": "See {IERC721-isApprovedForAll}."
      },
      "name()": {
        "details": "See {IERC721Metadata-name}."
      },
      "owner()": {
        "details": "Returns the address of the current owner."
      },
      "ownerOf(uint256)": {
        "details": "See {IERC721-ownerOf}."
      },
      "renounceOwnership()": {
        "details": "Leaves the contract without owner. It will not be possible to call `onlyOwner` functions anymore. Can only be called by the current owner. NOTE: Renouncing ownership will leave the contract without an owner, thereby removing any functionality that is only available to the owner."
      },
      "safeTransferFrom(address,address,uint256)": {
        "details": "See {IERC721-safeTransferFrom}."
      },
      "safeTransferFrom(address,address,uint256,bytes)": {
        "details": "See {IERC721-safeTransferFrom}."
      },
      "setApprovalForAll(address,bool)": {
        "details": "See {IERC721-setApprovalForAll}."
      },
      "supportsInterface(bytes4)": {
        "details": "See {IERC165-supportsInterface}."
      },
      "symbol()": {
        "details": "See {IERC721Metadata-symbol}."
      },
      "tokenURI(uint256)": {
        "details": "See {IERC721Metadata-tokenURI}."
      },
      "transferFrom(address,address,uint256)": {
        "details": "See {IERC721-transferFrom}."
      },
      "transferOwnership(address)": {
        "details": "Transfers ownership of the contract to a new account (`newOwner`). Can only be called by the current owner."
      }
    },
    "version": 1
  },
  "userdoc": {
    "kind": "user",
    "methods": {},
    "version": 1
  }
}